{
  "_format": "hh-sol-artifact-1",
  "contractName": "OrbVault",
  "sourceName": "contracts/OrbVault.sol",
  "abi": [
    {
      "inputs": [
        {
          "internalType": "address",
          "name": "_token",
          "type": "address"
        }
      ],
      "stateMutability": "nonpayable",
      "type": "constructor"
    },
    {
      "anonymous": false,
      "inputs": [
        {
          "indexed": false,
          "internalType": "uint256",
          "name": "assetDeposited",
          "type": "uint256"
        },
        {
          "indexed": false,
          "internalType": "uint256",
          "name": "shareMinted",
          "type": "uint256"
        }
      ],
      "name": "Deposited",
      "type": "event"
    },
    {
      "anonymous": false,
      "inputs": [
        {
          "indexed": false,
          "internalType": "uint256",
          "name": "assetWithdrawn",
          "type": "uint256"
        },
        {
          "indexed": false,
          "internalType": "uint256",
          "name": "shareBurnt",
          "type": "uint256"
        }
      ],
      "name": "Withdrawn",
      "type": "event"
    },
    {
      "inputs": [
        {
          "internalType": "address",
          "name": "",
          "type": "address"
        }
      ],
      "name": "balanceOf",
      "outputs": [
        {
          "internalType": "uint256",
          "name": "",
          "type": "uint256"
        }
      ],
      "stateMutability": "view",
      "type": "function"
    },
    {
      "inputs": [
        {
          "internalType": "uint256",
          "name": "amountToDeposit",
          "type": "uint256"
        }
      ],
      "name": "deposit",
      "outputs": [],
      "stateMutability": "payable",
      "type": "function"
    },
    {
      "inputs": [],
      "name": "token",
      "outputs": [
        {
          "internalType": "contract OrbToken",
          "name": "",
          "type": "address"
        }
      ],
      "stateMutability": "view",
      "type": "function"
    },
    {
      "inputs": [],
      "name": "totalAsset",
      "outputs": [
        {
          "internalType": "uint256",
          "name": "",
          "type": "uint256"
        }
      ],
      "stateMutability": "view",
      "type": "function"
    },
    {
      "inputs": [],
      "name": "totalSupply",
      "outputs": [
        {
          "internalType": "uint256",
          "name": "",
          "type": "uint256"
        }
      ],
      "stateMutability": "view",
      "type": "function"
    },
    {
      "inputs": [
        {
          "internalType": "uint256",
          "name": "_shares",
          "type": "uint256"
        }
      ],
      "name": "withdraw",
      "outputs": [],
      "stateMutability": "nonpayable",
      "type": "function"
    }
  ],
  "bytecode": "0x60a060405234801561001057600080fd5b5060405161064a38038061064a83398101604081905261002f91610040565b6001600160a01b0316608052610070565b60006020828403121561005257600080fd5b81516001600160a01b038116811461006957600080fd5b9392505050565b6080516105b16100996000396000818161010d01528181610349015261041201526105b16000f3fe6080604052600436106100555760003560e01c806318160ddd1461005a5780632e1a7d4d1461008357806370a08231146100a5578063b6b55f25146100d2578063f9557ccb146100e5578063fc0c546a146100fb575b600080fd5b34801561006657600080fd5b5061007060005481565b6040519081526020015b60405180910390f35b34801561008f57600080fd5b506100a361009e3660046104ac565b610147565b005b3480156100b157600080fd5b506100706100c03660046104c5565b60026020526000908152604090205481565b6100a36100e03660046104ac565b61024e565b3480156100f157600080fd5b5061007060015481565b34801561010757600080fd5b5061012f7f000000000000000000000000000000000000000000000000000000000000000081565b6040516001600160a01b03909116815260200161007a565b3360009081526002602052604090205481111561019f5760405162461bcd60e51b81526020600482015260116024820152706e6f7420656e6f7567682073686172657360781b60448201526064015b60405180910390fd5b600080546001546101b0919061050b565b905060006101be838361052d565b905080600160008282546101d2919061054c565b909155506101e290503384610323565b604051339082156108fc029083906000818181858888f1935050505015801561020f573d6000803e3d6000fd5b5060408051828152602081018590527f0c875c8d391179c5cf7ad8303d268efd50b8beb78b671f85cd54bfb91eb8ef40910160405180910390a1505050565b3481146102945760405162461bcd60e51b81526020600482015260146024820152731a5b98dbdc9c9958dd0811551208185b5bdd5b9d60621b6044820152606401610196565b600080546102a35750806102c4565b600080546001546102b4919061050b565b90506102c0818461050b565b9150505b81600160008282546102d69190610563565b909155506102e6905033826103ec565b60408051838152602081018390527f06da3309189fa49284f335d2c2bcb4cb0b8ad2a59ad92a9bdebeeb8f1ceba511910160405180910390a15050565b604051632770a7eb60e21b81526001600160a01b038381166004830152602482018390527f00000000000000000000000000000000000000000000000000000000000000001690639dc29fac90604401600060405180830381600087803b15801561038d57600080fd5b505af11580156103a1573d6000803e3d6000fd5b50505050806000808282546103b6919061054c565b90915550506001600160a01b038216600090815260026020526040812080548392906103e390849061054c565b90915550505050565b6040516340c10f1960e01b81526001600160a01b038381166004830152602482018390527f000000000000000000000000000000000000000000000000000000000000000016906340c10f1990604401600060405180830381600087803b15801561045657600080fd5b505af115801561046a573d6000803e3d6000fd5b505050508060008082825461047f9190610563565b90915550506001600160a01b038216600090815260026020526040812080548392906103e3908490610563565b6000602082840312156104be57600080fd5b5035919050565b6000602082840312156104d757600080fd5b81356001600160a01b03811681146104ee57600080fd5b9392505050565b634e487b7160e01b600052601160045260246000fd5b60008261052857634e487b7160e01b600052601260045260246000fd5b500490565b6000816000190483118215151615610547576105476104f5565b500290565b60008282101561055e5761055e6104f5565b500390565b60008219821115610576576105766104f5565b50019056fea264697066735822122017deaadbb27621e1f0a9f4ac065aac93191d5af19b059a00301c69f5309f23b564736f6c63430008090033",
  "linkReferences": {},
  "deployedLinkReferences": {}
}